{
  "contractName": "Student",
  "abi": [
    {
      "constant": true,
      "inputs": [],
      "name": "countStudents",
      "outputs": [
        {
          "name": "",
          "type": "uint256"
        }
      ],
      "payable": false,
      "stateMutability": "view",
      "type": "function"
    },
    {
      "constant": false,
      "inputs": [
        {
          "name": "name",
          "type": "string"
        },
        {
          "name": "schName",
          "type": "string"
        },
        {
          "name": "schId",
          "type": "uint256"
        }
      ],
      "name": "addStudent",
      "outputs": [],
      "payable": false,
      "stateMutability": "nonpayable",
      "type": "function"
    },
    {
      "constant": false,
      "inputs": [
        {
          "name": "id",
          "type": "uint256"
        }
      ],
      "name": "deleteStudent",
      "outputs": [],
      "payable": false,
      "stateMutability": "nonpayable",
      "type": "function"
    },
    {
      "constant": false,
      "inputs": [
        {
          "name": "id",
          "type": "uint256"
        },
        {
          "name": "stuname",
          "type": "string"
        },
        {
          "name": "school",
          "type": "string"
        },
        {
          "name": "identify",
          "type": "uint256"
        }
      ],
      "name": "midifyStu",
      "outputs": [],
      "payable": false,
      "stateMutability": "nonpayable",
      "type": "function"
    },
    {
      "constant": true,
      "inputs": [
        {
          "name": "id",
          "type": "uint256"
        }
      ],
      "name": "findAll",
      "outputs": [
        {
          "name": "",
          "type": "uint256"
        },
        {
          "name": "",
          "type": "string"
        },
        {
          "name": "",
          "type": "string"
        },
        {
          "name": "",
          "type": "uint256"
        },
        {
          "name": "",
          "type": "uint256"
        },
        {
          "name": "",
          "type": "uint256"
        }
      ],
      "payable": false,
      "stateMutability": "view",
      "type": "function"
    },
    {
      "constant": true,
      "inputs": [
        {
          "name": "stuid",
          "type": "uint256"
        }
      ],
      "name": "getStuCountId",
      "outputs": [
        {
          "name": "",
          "type": "uint256"
        }
      ],
      "payable": false,
      "stateMutability": "view",
      "type": "function"
    },
    {
      "constant": false,
      "inputs": [
        {
          "name": "studentId",
          "type": "uint256"
        },
        {
          "name": "course",
          "type": "string"
        },
        {
          "name": "num",
          "type": "uint256"
        }
      ],
      "name": "addStuScore",
      "outputs": [],
      "payable": false,
      "stateMutability": "nonpayable",
      "type": "function"
    },
    {
      "constant": false,
      "inputs": [
        {
          "name": "stuid",
          "type": "uint256"
        },
        {
          "name": "stucourseid",
          "type": "uint256"
        }
      ],
      "name": "deleteStuSorce",
      "outputs": [],
      "payable": false,
      "stateMutability": "nonpayable",
      "type": "function"
    },
    {
      "constant": true,
      "inputs": [
        {
          "name": "id",
          "type": "uint256"
        },
        {
          "name": "couid",
          "type": "uint256"
        }
      ],
      "name": "findStudentAll",
      "outputs": [
        {
          "name": "",
          "type": "string"
        },
        {
          "name": "",
          "type": "string"
        },
        {
          "name": "",
          "type": "uint256"
        },
        {
          "name": "",
          "type": "uint256"
        },
        {
          "name": "",
          "type": "uint256"
        },
        {
          "name": "",
          "type": "uint256"
        }
      ],
      "payable": false,
      "stateMutability": "view",
      "type": "function"
    },
    {
      "constant": true,
      "inputs": [
        {
          "name": "ads",
          "type": "address"
        }
      ],
      "name": "checkUser",
      "outputs": [
        {
          "name": "",
          "type": "bool"
        }
      ],
      "payable": false,
      "stateMutability": "view",
      "type": "function"
    },
    {
      "constant": true,
      "inputs": [
        {
          "name": "_a",
          "type": "string"
        },
        {
          "name": "_b",
          "type": "string"
        }
      ],
      "name": "stringsEqual",
      "outputs": [
        {
          "name": "",
          "type": "bool"
        }
      ],
      "payable": false,
      "stateMutability": "pure",
      "type": "function"
    },
    {
      "constant": true,
      "inputs": [
        {
          "name": "schName",
          "type": "string"
        },
        {
          "name": "schId",
          "type": "uint256"
        }
      ],
      "name": "isExit",
      "outputs": [
        {
          "name": "",
          "type": "bool"
        }
      ],
      "payable": false,
      "stateMutability": "view",
      "type": "function"
    }
  ],
  "bytecode": "0x6080604052600060015534801561001557600080fd5b50611472806100256000396000f3006080604052600436106100ba576000357c0100000000000000000000000000000000000000000000000000000000900463ffffffff16806313d19950146100bf57806318bf3c7c146101865780631e9d48cf146102b457806335a869ab1461030f578063477f5a69146103505780639cc8f1391461037b578063a05f7c6d14610434578063b645307d146104bf578063bf2f9be9146104ec578063c3df396314610523578063d6255e25146105e6578063e74b6fc61461071e575b600080fd5b3480156100cb57600080fd5b5061016c600480360381019080803590602001908201803590602001908080601f0160208091040260200160405190810160405280939291908181526020018383808284378201915050505050509192919290803590602001908201803590602001908080601f016020809104026020016040519081016040528093929190818152602001838380828437820191505050505050919291929050505061079b565b604051808215151515815260200191505060405180910390f35b34801561019257600080fd5b506101b1600480360381019080803590602001909291905050506108eb565b604051808781526020018060200180602001868152602001858152602001848152602001838103835288818151815260200191508051906020019080838360005b8381101561020d5780820151818401526020810190506101f2565b50505050905090810190601f16801561023a5780820380516001836020036101000a031916815260200191505b50838103825287818151815260200191508051906020019080838360005b83811015610273578082015181840152602081019050610258565b50505050905090810190601f1680156102a05780820380516001836020036101000a031916815260200191505b509850505050505050505060405180910390f35b3480156102c057600080fd5b506102f5600480360381019080803573ffffffffffffffffffffffffffffffffffffffff169060200190929190505050610aaf565b604051808215151515815260200191505060405180910390f35b34801561031b57600080fd5b5061033a60048036038101908080359060200190929190505050610af8565b6040518082815260200191505060405180910390f35b34801561035c57600080fd5b50610365610b17565b6040518082815260200191505060405180910390f35b34801561038757600080fd5b50610432600480360381019080803590602001908201803590602001908080601f0160208091040260200160405190810160405280939291908181526020018383808284378201915050505050509192919290803590602001908201803590602001908080601f016020809104026020016040519081016040528093929190818152602001838380828437820191505050505050919291929080359060200190929190505050610b21565b005b34801561044057600080fd5b506104a5600480360381019080803590602001908201803590602001908080601f016020809104026020016040519081016040528093929190818152602001838380828437820191505050505050919291929080359060200190929190505050610d84565b604051808215151515815260200191505060405180910390f35b3480156104cb57600080fd5b506104ea60048036038101908080359060200190929190505050610e88565b005b3480156104f857600080fd5b506105216004803603810190808035906020019092919080359060200190929190505050610ee4565b005b34801561052f57600080fd5b506105e460048036038101908080359060200190929190803590602001908201803590602001908080601f0160208091040260200160405190810160405280939291908181526020018383808284378201915050505050509192919290803590602001908201803590602001908080601f016020809104026020016040519081016040528093929190818152602001838380828437820191505050505050919291929080359060200190929190505050610f7b565b005b3480156105f257600080fd5b5061061b6004803603810190808035906020019092919080359060200190929190505050611053565b604051808060200180602001878152602001868152602001858152602001848152602001838103835289818151815260200191508051906020019080838360005b8381101561067757808201518184015260208101905061065c565b50505050905090810190601f1680156106a45780820380516001836020036101000a031916815260200191505b50838103825288818151815260200191508051906020019080838360005b838110156106dd5780820151818401526020810190506106c2565b50505050905090810190601f16801561070a5780820380516001836020036101000a031916815260200191505b509850505050505050505060405180910390f35b34801561072a57600080fd5b5061079960048036038101908080359060200190929190803590602001908201803590602001908080601f01602080910402602001604051908101604052809392919081815260200183838082843782019150505050505091929192908035906020019092919050505061122d565b005b60006060806000859250849150815183511415156107bc57600093506108e2565b600090505b82518110156108dd5781818151811015156107d857fe5b9060200101517f010000000000000000000000000000000000000000000000000000000000000090047f0100000000000000000000000000000000000000000000000000000000000000027effffffffffffffffffffffffffffffffffffffffffffffffffffffffffffff1916838281518110151561085357fe5b9060200101517f010000000000000000000000000000000000000000000000000000000000000090047f0100000000000000000000000000000000000000000000000000000000000000027effffffffffffffffffffffffffffffffffffffffffffffffffffffffffffff19161415156108d057600093506108e2565b80806001019150506107c1565b600193505b50505092915050565b60006060806000806000866000808981526020019081526020016000206001016000808a81526020019081526020016000206003016000808b8152602001908152602001600020600401546000808c8152602001908152602001600020600501546000808d815260200190815260200160002060060154848054600181600116156101000203166002900480601f0160208091040260200160405190810160405280929190818152602001828054600181600116156101000203166002900480156109f75780601f106109cc576101008083540402835291602001916109f7565b820191906000526020600020905b8154815290600101906020018083116109da57829003601f168201915b50505050509450838054600181600116156101000203166002900480601f016020809104026020016040519081016040528092919081815260200182805460018160011615610100020316600290048015610a935780601f10610a6857610100808354040283529160200191610a93565b820191906000526020600020905b815481529060010190602001808311610a7657829003601f168201915b5050505050935095509550955095509550955091939550919395565b60008173ffffffffffffffffffffffffffffffffffffffff163373ffffffffffffffffffffffffffffffffffffffff161415610aee5760019050610af3565b600090505b919050565b6000806000838152602001908152602001600020600201549050919050565b6000600154905090565b60006001541415610c4d5760e0604051908101604052803373ffffffffffffffffffffffffffffffffffffffff16815260200184815260200160008152602001838152602001828152602001600154815260200160018152506000806001600081548092919060010191905055815260200190815260200160002060008201518160000160006101000a81548173ffffffffffffffffffffffffffffffffffffffff021916908373ffffffffffffffffffffffffffffffffffffffff1602179055506020820151816001019080519060200190610bff929190611321565b50604082015181600201556060820151816003019080519060200190610c26929190611321565b506080820151816004015560a0820151816005015560c08201518160060155905050610d7f565b610c578282610d84565b1515610c6257600080fd5b60e0604051908101604052803373ffffffffffffffffffffffffffffffffffffffff16815260200184815260200160008152602001838152602001828152602001600154815260200160018152506000806001600081548092919060010191905055815260200190815260200160002060008201518160000160006101000a81548173ffffffffffffffffffffffffffffffffffffffff021916908373ffffffffffffffffffffffffffffffffffffffff1602179055506020820151816001019080519060200190610d35929190611321565b50604082015181600201556060820151816003019080519060200190610d5c929190611321565b506080820151816004015560a0820151816005015560c082015181600601559050505b505050565b60008060008091505b600154821015610e7b576000808381526020019081526020016000209050610e51816003018054600181600116156101000203166002900480601f016020809104026020016040519081016040528092919081815260200182805460018160011615610100020316600290048015610e465780601f10610e1b57610100808354040283529160200191610e46565b820191906000526020600020905b815481529060010190602001808311610e2957829003601f168201915b50505050508661079b565b8015610e605750838160040154145b15610e6e5760009250610e80565b8180600101925050610d8d565b600192505b505092915050565b60008060008381526020019081526020016000209050610ecb8160000160009054906101000a900473ffffffffffffffffffffffffffffffffffffffff16610aaf565b1515610ed657600080fd5b600081600601819055505050565b600080600084815260200190815260200160002090503373ffffffffffffffffffffffffffffffffffffffff168160000160009054906101000a900473ffffffffffffffffffffffffffffffffffffffff1673ffffffffffffffffffffffffffffffffffffffff16141515610f5857600080fd5b600081600701600084815260200190815260200160002060030181905550505050565b60008060008681526020019081526020016000209050610fbe8160000160009054906101000a900473ffffffffffffffffffffffffffffffffffffffff16610aaf565b1515610fc957600080fd5b610fd38383610d84565b1515610fde57600080fd5b8360008087815260200190815260200160002060010190805190602001906110079291906113a1565b508260008087815260200190815260200160002060030190805190602001906110319291906113a1565b5081600080878152602001908152602001600020600401819055505050505050565b60608060008060008060008060008a81526020019081526020016000209050806001018160070160008a81526020019081526020016000206000018260070160008b81526020019081526020016000206001015483600601548460070160008d8152602001908152602001600020600301548560070160008e815260200190815260200160002060040154858054600181600116156101000203166002900480601f0160208091040260200160405190810160405280929190818152602001828054600181600116156101000203166002900480156111735780601f1061114857610100808354040283529160200191611173565b820191906000526020600020905b81548152906001019060200180831161115657829003601f168201915b50505050509550848054600181600116156101000203166002900480601f01602080910402602001604051908101604052809291908181526020018280546001816001161561010002031660029004801561120f5780601f106111e45761010080835404028352916020019161120f565b820191906000526020600020905b8154815290600101906020018083116111f257829003601f168201915b50505050509450965096509650965096509650509295509295509295565b600080600085815260200190815260200160002090506112708160000160009054906101000a900473ffffffffffffffffffffffffffffffffffffffff16610aaf565b151561127b57600080fd5b60a0604051908101604052808481526020018381526020018260020154815260200160018152602001826002015481525081600701600083600201600081548092919060010191905055815260200190815260200160002060008201518160000190805190602001906112ef929190611321565b506020820151816001015560408201518160020155606082015181600301556080820151816004015590505050505050565b828054600181600116156101000203166002900490600052602060002090601f016020900481019282601f1061136257805160ff1916838001178555611390565b82800160010185558215611390579182015b8281111561138f578251825591602001919060010190611374565b5b50905061139d9190611421565b5090565b828054600181600116156101000203166002900490600052602060002090601f016020900481019282601f106113e257805160ff1916838001178555611410565b82800160010185558215611410579182015b8281111561140f5782518255916020019190600101906113f4565b5b50905061141d9190611421565b5090565b61144391905b8082111561143f576000816000905550600101611427565b5090565b905600a165627a7a7230582078848ddd424d052808093324443a431b26775674e3ec38aeee93b010a76dd2c00029",
  "source": "pragma solidity ^0.4.23;\r\n\r\ncontract Student {\r\n  struct Course {\r\n    string courseName;\r\n    uint score;\r\n    uint countIdInSystem;\r\n    uint isUse;\r\n    uint courseId;\r\n  }\r\n  struct Students {\r\n    address stuAds;\r\n    string stuName;\r\n    uint countId;\r\n    string stuSchool;\r\n    uint stuSchoolId;\r\n    uint idInSystem;\r\n    uint isUsed;\r\n    mapping (uint => Course) courseCount;\r\n  }\r\n  mapping (uint => Students) stuIds;\r\n  uint stuId=0;\r\n\r\n  /* constructor()public {\r\n\r\n  } */\r\n  function countStudents()view public returns(uint){\r\n      return stuId;\r\n  }\r\n\r\n  function addStudent(string name,string schName,uint schId)public {\r\n    if(stuId==0){\r\n     stuIds[stuId++] =Students(msg.sender,name,0,schName,schId,stuId,1);\r\n    }else{\r\n    require(isExit(schName,schId));\r\n    stuIds[stuId++] =Students(msg.sender,name,0,schName,schId,stuId,1);\r\n    }\r\n  }\r\n\r\n    function deleteStudent(uint id)public{\r\n      Students storage stu =stuIds[id];\r\n      require(checkUser(stu.stuAds));\r\n      stu.isUsed = 0;\r\n  }\r\n\r\n  function midifyStu(uint id,string stuname,string school,uint identify)public {\r\n    Students storage stu =stuIds[id];\r\n    require(checkUser(stu.stuAds));\r\n    require(isExit(school,identify));\r\n    stuIds[id].stuName=stuname;\r\n    stuIds[id].stuSchool=school;\r\n    stuIds[id].stuSchoolId=identify;\r\n\r\n  }\r\n  function findAll(uint id)view public returns(uint,string,string,uint,uint,uint) {\r\n    return (id,stuIds[id].stuName,stuIds[id].stuSchool,stuIds[id].stuSchoolId,stuIds[id].idInSystem,\r\n    stuIds[id].isUsed);\r\n  }\r\n\r\n\r\n  function getStuCountId(uint stuid)view public returns (uint) {\r\n    return stuIds[stuid].countId;\r\n  }\r\n\r\n  function addStuScore(uint studentId,string course,uint num)public {\r\n    Students storage stu =stuIds[studentId];\r\n    require(checkUser(stu.stuAds));\r\n    stu.courseCount[stu.countId++] =Course(course,num,stu.countId,1,stu.countId);\r\n\r\n  }\r\n\r\n  function deleteStuSorce(uint stuid,uint stucourseid)public{\r\n      Students storage stu =stuIds[stuid];\r\n      require(stu.stuAds == msg.sender);\r\n      stu.courseCount[stucourseid].isUse=0;\r\n\r\n  }\r\n\r\n\r\n\r\n  function findStudentAll(uint id,uint couid)view public returns (string,string,uint,uint,uint,uint) {\r\n      Students storage stu =stuIds[id];\r\n      return (stu.stuName,stu.courseCount[couid].courseName,stu.courseCount[couid].score,\r\n      stu.isUsed,stu.courseCount[couid].isUse,stu.courseCount[couid].courseId);\r\n  }\r\n\r\n    function checkUser(address ads)view public returns(bool){\r\n        if(msg.sender==ads){\r\n            return true;\r\n        }else{\r\n            return false;\r\n        }\r\n    }\r\n\r\n  \tfunction stringsEqual(string  _a, string memory _b)pure public returns (bool) {\r\n\t\tbytes memory a = bytes(_a);\r\n\t\tbytes memory b = bytes(_b);\r\n\t\tif (a.length != b.length)\r\n\t\t\treturn false;\r\n\t\t// @todo unroll this loop\r\n\t\tfor (uint i = 0; i < a.length; i ++)\r\n\t\t\tif (a[i] != b[i])\r\n\t\t\t\treturn false;\r\n\t\treturn true;\r\n\t}\r\n\r\n\tfunction isExit(string schName,uint schId)view public returns(bool){\r\n\tfor(uint i=0;i<stuId;i++){\r\n    Students storage stu =stuIds[i];\r\n    if(stringsEqual(stu.stuSchool,schName)&&stu.stuSchoolId==schId){\r\n    return false;\r\n    }\r\n\t}\r\n\treturn true;\r\n\t}\r\n\r\n\r\n\r\n}\r\n",
  "sourcePath": "C:\\Users\\Li\\test\\stu\\contracts\\Student.sol",
  "compiler": {
    "name": "solc",
    "version": "0.4.23+commit.124ca40d.Emscripten.clang"
  },
  "schemaVersion": "2.0.0",
  "updatedAt": "2018-06-04T08:32:05.500Z"
}